:10000000CF93DF9300D0CDB7DEB780E091EE9A8337
:10001000898307C00E94730089819A8101979A831E
:10002000898389819A8118161906A4F30F900F907D
:10003000DF91CF910895CF93DF93CDB7DEB787E0FF
:1000400090E00E946D0086E090E00E946F0082E0E8
:1000500090E00E946F000E94730085E090E00E9493
:100060006F000E947300F3CF33C000000000000057
:100070000000000000000000000000000000000080
:100080000000000000000000000000000000000070
:100090000000000000000000000000000000000060
:1000A0000000000000000000000000000000000050
:1000B0000000000000000000000000000000000040
:1000C0000000000000000000000000000000000030
:1000D00008E00EBF0FEF0DBFAECF8AB908958BB900
:1000E00008958BB108952FEF2A950000E9F7089540
:040000030000006891
:00000001FF
